:020000040800F2
:10000000000002200D0900085F0900086D090008C2
:1000100073090008790900087F0900080000000042
:10002000000000000000000000000000850900083A
:100030009309000800000000A1090008AF090008AA
:100040005D0900085D0900085D0900085D090008F8
:100050005D0900085D0900085D0900085D090008E8
:100060005D0900085D0900085D09000869070008CE
:100070005D0900085D0900085D0900085D090008C8
:100080005D0900085D0900085D0900085D090008B8
:100090005D0900085D0900085D0900085D090008A8
:1000A0005D0900085D0900085D0900085D09000898
:1000B0005D0900085D0900085D0900085D09000888
:1000C0005D0900085D0900085D0900085D09000878
:1000D0005D0900085D0900085D0900085D09000868
:1000E0005D0900085D0900085D0900085D09000858
:1000F0005D0900085D0900085D0900085D0700084A
:100100005D0900085D0900085D0900087507000821
:100110005D0900085D0900085D0900085D09000827
:100120005D0900085D0900085D0900085D09000817
:100130005D0900085D0900085D0900085D09000807
:100140005D0900085D0900085D0900085D090008F7
:100150005D0900085D0900085D0900085D090008E7
:100160005D0900085D0900085D0900085D090008D7
:100170005D0900085D0900085D0900085D090008C7
:080180005D0900085D0900089B
:1001880010B5054C237833B9044B13B10448AFF3C9
:1001980000800123237010BD200000200000000013
:1001A800680B000808B5034B1BB103490348AFF3BC
:1001B800008008BD0000000024000020680B000833
:1001C80080B485B000AF78600B467B800023FB606D
:1001D800084BFB60FA687B6813440833FB60FB68D4
:1001E8001A467B88136000BF1437BD465DF8047B50
:1001F800704700BF0074004080B485B000AF7860DD
:1002080039600023FB607B681B68FB60FA68254B3C
:100218001340FB603B681A683B68DB681A433B681D
:100228005B691A433B689B691A433B68DB691A435D
:100238003B681B6A1A433B685B6A1A433B689B6AC4
:100248001A433B685B6B1A433B689B6B1343FA6822
:100258001343FB607B68FA681A607B685B69FB6024
:10026800FB6823F00703FB603B68DA6A3B681B6B9B
:100278001343FA681343FB607B68FA685A613B686A
:100288001A697B685A603B685A687B689A603B6861
:100298009A687B68DA6000BF1437BD465DF8047B56
:1002A800704700BF3F801CF080B483B000AF786017
:1002B8000B46FB70FB78002B06D07B681B6843F06D
:1002C80001027B681A6005E07B681B6823F0010265
:1002D8007B681A6000BF0C37BD465DF8047B704729
:1002E80080B485B000AF78600023FB737B681B681F
:1002F80003F00103002B02D00123FB7301E000236C
:10030800FB73FB7B18461437BD465DF8047B7047CA
:1003180080B487B000AF786039600023FB75002394
:10032800FB607B68154A934202D8154B3B6101E09C
:10033800144B3B613B6803F00053002B03D03B692F
:100348005B68FB6002E03B691B68FB60FB6823F0AD
:10035800F02323F08213FB60FA683B681340002BFC
:1003680002D00123FB7501E00023FB75FB7D1846D5
:100378001C37BD465DF8047B704700BF0F64024020
:10038800006002400064024080B485B000AF78602D
:1003980039607B68104A934202D8104BFB6001E039
:1003A8000F4BFB603B6803F00053002B07D03B6802
:1003B80023F0F02323F08213FA68D36006E03B6849
:1003C80023F0F02323F08213FA68936000BF1437F8
:1003D800BD465DF8047B70470F6402400060024030
:1003E8000064024080B487B000AF786039600023B1
:1003F8007B6100233B610023FB6000237B6176E087
:1004080001227B6902FA03F33B613B681A683B6986
:100418001340FB60FA683B699A4265D17B681A68A9
:100428007B695B00032101FA03F3DB431A407B6815
:100438001A607B681A683B681B7919467B695B0000
:1004480001FA03F31A437B681A603B681B79012B96
:1004580003D03B681B79022B2ED17B689A687B6995
:100468005B00032101FA03F3DB431A407B689A60BF
:100478007B689A683B685B7919467B695B0001FA7F
:1004880003F31A437B689A607B685A687B699BB25E
:10049800194601238B40DB431A407B685A607B680E
:1004A8005B683A68927911467A6992B201FA02F267
:1004B80092B21A437B685A607B68DA687B699BB2A0
:1004C8005B00032101FA03F3DB431A407B68DA601F
:1004D8007B68DA683B68DB7919467B695B0001FA5F
:1004E80003F31A437B68DA607B6901337B617B69BC
:1004F8000F2B85D900BF1C37BD465DF8047B7047BC
:1005080080B483B000AF78600B46FB70FB78002B9B
:1005180006D00A49094B1A6B7B6813430B6306E044
:100528000649064B1A6B7B68DB4313400B6300BF1D
:100538000C37BD465DF8047B704700BF00380240A9
:1005480080B483B000AF78600B467B807B687A8884
:100558009A8100BF0C37BD465DF8047B704780B4B4
:1005680085B000AF78600B467B800023FB737B6807
:100578001B899AB27B8813409BB2002B02D00123BF
:10058800FB7301E00023FB73FB7B18461437BD4661
:100598005DF8047B7047000080B584B000AF034667
:1005A800FB71FB79104A52F8233001211846FFF7F6
:1005B800A7FFFB790D4A32F81330BB6001233B7368
:1005C8000023BB730123FB7302237B73FB79084A67
:1005D80052F8233007F1080211461846FFF702FFC8
:1005E80000BF1037BD4680BD880B0008800B00088F
:1005F8000000002080B483B000AF0346FB71FB7994
:10060800064A52F82330FA79054931F812201A833C
:1006180000BF0C37BD465DF8047B70470000002022
:10062800800B000880B483B000AF0346FB71FB79F0
:10063800064A52F82330FA79054931F812205A83CC
:1006480000BF0C37BD465DF8047B704700000020F2
:10065800800B000880B500AF384B1A68384B1B6810
:1006680019461046FFF754FE0346002B64D0354B5D
:100678001B68002B4CD000BF304B1B681846FFF797
:100688002FFE0346002BF7D12C4B1A682C4B1B6806
:1006980019461046FFF778FE2B4B1B681A462B4B62
:1006A8009A60284B1B684FF6FF72934228BF134687
:1006B800264A1361214B1B6824491846FFF79CFD05
:1006C8001E4B1B6801211846FFF7EEFD1E4B1A68EA
:1006D8001C4B1B68B3F5803F03D21A4B1B685B00A9
:1006E80000E01B4B1344184A1360164B1A68154B4D
:1006F8001B684FF6FF718B4228BF0B46D31A114A6D
:1007080013600E4B1B6801211846FFF7CDFD13E05F
:100718000A4B1B6800211846FFF7C6FD074B1A68ED
:10072800074B1B6819461046FFF72EFE064B1B6841
:100738000021184600F0D2F800BF80BD1800002044
:100748001C000020100000203C0000207C0000203D
:10075800FEFF010080B500AFFFF77CFF00BF80BD42
:1007680080B500AFFFF776FF00BF80BD80B500AF52
:1007780002210D48FFF7F3FE0346002B11D00B4B67
:100788001B68022B06D100F0B4F803461946042072
:10079800FFF716FD00F0ADF8034619460248FFF7CB
:1007A800CFFE00BF80BD00BF003C00401400002009
:1007B80080B582B000AF0023FB800120FFF7ECFE7C
:1007C8000020FFF7E9FE0220FFF7E6FE0320FFF70F
:1007D800E3FE0120FFF70EFF0020FFF70BFF0220CA
:1007E800FFF708FF0320FFF705FFFB881433FB80A2
:1007F800FB88194AA2FB031292094FF47A7101FB94
:1008080002F29B1AFB800120FFF7F4FEFB881846D2
:1008180000F024F80120FFF705FF0020FFF7EAFEAB
:10082800FB88184600F01AF80020FFF7FBFE0320AB
:10083800FFF7E0FEFB88184600F010F80320FFF7EA
:10084800F1FE0220FFF7D6FEFB88184600F006F8F6
:100858000220FFF7E7FEC8E7D34D621080B483B0EB
:1008680000AF0346FB80FB88002B2CD0194A194B9C
:100878001B6C43F020031364174A174B1B889BB269
:1008880023F001039BB21380134B00221A82124BF0
:1008980000225A62104B40F69F721A850E4AFB8856
:1008A800013BD3620C4A0C4B1B889BB243F00103FB
:1008B8009BB2138000BF084B1B8A9BB203F0010355
:1008C800002BF8D000E000BF0C37BD465DF8047B74
:1008D800704700BF003802400014004080B483B065
:1008E80000AF7860396000BF0C37BD465DF8047B07
:1008F800704780B400AF4FF6FF731846BD465DF8E9
:10090800047B7047DFF834D0002103E00C4B5B58C0
:10091800435004310B480C4B42189A42F6D30B4A09
:1009280002E0002342F8043B094B9A42F9D300F055
:1009380041F800F0F1F8FFF73BFF70470000022094
:10094800A00B00080000002020000020200000204C
:10095800B8000020FEE780B400AF00BFBD465DF8D8
:10096800047B704780B400AFFEE780B400AFFEE7B9
:1009780080B400AFFEE780B400AFFEE780B400AFFC
:1009880000BFBD465DF8047B704780B400AF00BF70
:10099800BD465DF8047B704780B400AF00BFBD461C
:1009A8005DF8047B704780B400AF00BFBD465DF8BA
:1009B800047B704780B500AF164A164BD3F88830D1
:1009C80043F47003C2F88830134A134B1B6843F092
:1009D80001031360104B00229A600F4A0E4B1B68EC
:1009E80023F0847323F4803313600B4B0B4A5A6053
:1009F800094A094B1B6823F480231360064B002225
:100A0800DA6000F00DF8034B4FF000629A6000BF07
:100A180080BD00BF00ED00E0003802401030002427
:100A280080B483B000AF00237B6000233B60364A6C
:100A3800354B1B6843F480331360334B1B6803F456
:100A480000333B607B6801337B603B68002B03D13C
:100A58007B68B3F5A06FF0D12B4B1B6803F4003310
:100A6800002B02D001233B6001E000233B603B6880
:100A7800012B42D1244A244B1B6C43F0805313644E
:100A8800224A224B1B6843F4404313601E4A1E4B04
:100A98009B6893601C4A1C4B9B6843F4004393601B
:100AA800194A194B9B6843F4A0539360164B184A94
:100AB8005A60154A144B1B6843F08073136000BFDB
:100AC800114B1B6803F00073002BF9D0114B40F257
:100AD80005621A600C4A0C4B9B6823F00303936071
:100AE800094A094B9B6843F00203936000BF064B19
:100AF8009B6803F00C03082BF9D100BF0C37BD46E7
:100B08005DF8047B704700BF003802400070004069
:100B180008544007003C024070B50D4E0D4CA41B14
:100B2800A4100025A54209D10B4E0C4C00F018F872
:100B3800A41BA4100025A54205D170BD56F8253088
:100B480098470135EEE756F8253098470135F2E722
:100B5800980B0008980B0008980B00089C0B0008DD
:100B6800F8B500BFF8BC08BC9E467047F8B500BF92
:080B7800F8BC08BC9E46704762
:100B80000010002000400080080000000800000065
:080B900008000000080000004D
:040B9800AD010008A3
:040B9C0089010008C3
:100BA000000C0240000C0240000C0240000C02400D
:100BB000FFFF000001000000B860024000000028B4
:040000050800090DD9
:00000001FF
